{
  "_format": "hh-sol-artifact-1",
  "contractName": "EntryPointSimulations",
  "sourceName": "contracts/EntryPointSimulations.sol",
  "abi": [
    {
      "inputs": [],
      "stateMutability": "nonpayable",
      "type": "constructor"
    },
    {
      "inputs": [
        {
          "internalType": "bool",
          "name": "success",
          "type": "bool"
        },
        {
          "internalType": "bytes",
          "name": "ret",
          "type": "bytes"
        }
      ],
      "name": "DelegateAndRevert",
      "type": "error"
    },
    {
      "inputs": [
        {
          "internalType": "uint256",
          "name": "opIndex",
          "type": "uint256"
        },
        {
          "internalType": "string",
          "name": "reason",
          "type": "string"
        }
      ],
      "name": "FailedOp",
      "type": "error"
    },
    {
      "inputs": [
        {
          "internalType": "uint256",
          "name": "opIndex",
          "type": "uint256"
        },
        {
          "internalType": "string",
          "name": "reason",
          "type": "string"
        },
        {
          "internalType": "bytes",
          "name": "inner",
          "type": "bytes"
        }
      ],
      "name": "FailedOpWithRevert",
      "type": "error"
    },
    {
      "inputs": [],
      "name": "InvalidShortString",
      "type": "error"
    },
    {
      "inputs": [
        {
          "internalType": "bytes",
          "name": "returnData",
          "type": "bytes"
        }
      ],
      "name": "PostOpReverted",
      "type": "error"
    },
    {
      "inputs": [],
      "name": "ReentrancyGuardReentrantCall",
      "type": "error"
    },
    {
      "inputs": [
        {
          "internalType": "address",
          "name": "sender",
          "type": "address"
        }
      ],
      "name": "SenderAddressResult",
      "type": "error"
    },
    {
      "inputs": [
        {
          "internalType": "address",
          "name": "aggregator",
          "type": "address"
        }
      ],
      "name": "SignatureValidationFailed",
      "type": "error"
    },
    {
      "inputs": [
        {
          "internalType": "string",
          "name": "str",
          "type": "string"
        }
      ],
      "name": "StringTooLong",
      "type": "error"
    },
    {
      "anonymous": false,
      "inputs": [
        {
          "indexed": true,
          "internalType": "bytes32",
          "name": "userOpHash",
          "type": "bytes32"
        },
        {
          "indexed": true,
          "internalType": "address",
          "name": "sender",
          "type": "address"
        },
        {
          "indexed": false,
          "internalType": "address",
          "name": "factory",
          "type": "address"
        },
        {
          "indexed": false,
          "internalType": "address",
          "name": "paymaster",
          "type": "address"
        }
      ],
      "name": "AccountDeployed",
      "type": "event"
    },
    {
      "anonymous": false,
      "inputs": [],
      "name": "BeforeExecution",
      "type": "event"
    },
    {
      "anonymous": false,
      "inputs": [
        {
          "indexed": true,
          "internalType": "address",
          "name": "account",
          "type": "address"
        },
        {
          "indexed": false,
          "internalType": "uint256",
          "name": "totalDeposit",
          "type": "uint256"
        }
      ],
      "name": "Deposited",
      "type": "event"
    },
    {
      "anonymous": false,
      "inputs": [],
      "name": "EIP712DomainChanged",
      "type": "event"
    },
    {
      "anonymous": false,
      "inputs": [
        {
          "indexed": true,
          "internalType": "bytes32",
          "name": "userOpHash",
          "type": "bytes32"
        },
        {
          "indexed": true,
          "internalType": "address",
          "name": "sender",
          "type": "address"
        },
        {
          "indexed": false,
          "internalType": "uint256",
          "name": "nonce",
          "type": "uint256"
        },
        {
          "indexed": false,
          "internalType": "bytes",
          "name": "revertReason",
          "type": "bytes"
        }
      ],
      "name": "PostOpRevertReason",
      "type": "event"
    },
    {
      "anonymous": false,
      "inputs": [
        {
          "indexed": true,
          "internalType": "address",
          "name": "aggregator",
          "type": "address"
        }
      ],
      "name": "SignatureAggregatorChanged",
      "type": "event"
    },
    {
      "anonymous": false,
      "inputs": [
        {
          "indexed": true,
          "internalType": "address",
          "name": "account",
          "type": "address"
        },
        {
          "indexed": false,
          "internalType": "uint256",
          "name": "totalStaked",
          "type": "uint256"
        },
        {
          "indexed": false,
          "internalType": "uint256",
          "name": "unstakeDelaySec",
          "type": "uint256"
        }
      ],
      "name": "StakeLocked",
      "type": "event"
    },
    {
      "anonymous": false,
      "inputs": [
        {
          "indexed": true,
          "internalType": "address",
          "name": "account",
          "type": "address"
        },
        {
          "indexed": false,
          "internalType": "uint256",
          "name": "withdrawTime",
          "type": "uint256"
        }
      ],
      "name": "StakeUnlocked",
      "type": "event"
    },
    {
      "anonymous": false,
      "inputs": [
        {
          "indexed": true,
          "internalType": "address",
          "name": "account",
          "type": "address"
        },
        {
          "indexed": false,
          "internalType": "address",
          "name": "withdrawAddress",
          "type": "address"
        },
        {
          "indexed": false,
          "internalType": "uint256",
          "name": "amount",
          "type": "uint256"
        }
      ],
      "name": "StakeWithdrawn",
      "type": "event"
    },
    {
      "anonymous": false,
      "inputs": [
        {
          "indexed": true,
          "internalType": "bytes32",
          "name": "userOpHash",
          "type": "bytes32"
        },
        {
          "indexed": true,
          "internalType": "address",
          "name": "sender",
          "type": "address"
        },
        {
          "indexed": true,
          "internalType": "address",
          "name": "paymaster",
          "type": "address"
        },
        {
          "indexed": false,
          "internalType": "uint256",
          "name": "nonce",
          "type": "uint256"
        },
        {
          "indexed": false,
          "internalType": "bool",
          "name": "success",
          "type": "bool"
        },
        {
          "indexed": false,
          "internalType": "uint256",
          "name": "actualGasCost",
          "type": "uint256"
        },
        {
          "indexed": false,
          "internalType": "uint256",
          "name": "actualGasUsed",
          "type": "uint256"
        }
      ],
      "name": "UserOperationEvent",
      "type": "event"
    },
    {
      "anonymous": false,
      "inputs": [
        {
          "indexed": true,
          "internalType": "bytes32",
          "name": "userOpHash",
          "type": "bytes32"
        },
        {
          "indexed": true,
          "internalType": "address",
          "name": "sender",
          "type": "address"
        },
        {
          "indexed": false,
          "internalType": "uint256",
          "name": "nonce",
          "type": "uint256"
        }
      ],
      "name": "UserOperationPrefundTooLow",
      "type": "event"
    },
    {
      "anonymous": false,
      "inputs": [
        {
          "indexed": true,
          "internalType": "bytes32",
          "name": "userOpHash",
          "type": "bytes32"
        },
        {
          "indexed": true,
          "internalType": "address",
          "name": "sender",
          "type": "address"
        },
        {
          "indexed": false,
          "internalType": "uint256",
          "name": "nonce",
          "type": "uint256"
        },
        {
          "indexed": false,
          "internalType": "bytes",
          "name": "revertReason",
          "type": "bytes"
        }
      ],
      "name": "UserOperationRevertReason",
      "type": "event"
    },
    {
      "anonymous": false,
      "inputs": [
        {
          "indexed": true,
          "internalType": "address",
          "name": "account",
          "type": "address"
        },
        {
          "indexed": false,
          "internalType": "address",
          "name": "withdrawAddress",
          "type": "address"
        },
        {
          "indexed": false,
          "internalType": "uint256",
          "name": "amount",
          "type": "uint256"
        }
      ],
      "name": "Withdrawn",
      "type": "event"
    },
    {
      "inputs": [
        {
          "internalType": "uint32",
          "name": "unstakeDelaySec",
          "type": "uint32"
        }
      ],
      "name": "addStake",
      "outputs": [],
      "stateMutability": "payable",
      "type": "function"
    },
    {
      "inputs": [
        {
          "internalType": "address",
          "name": "account",
          "type": "address"
        }
      ],
      "name": "balanceOf",
      "outputs": [
        {
          "internalType": "uint256",
          "name": "",
          "type": "uint256"
        }
      ],
      "stateMutability": "view",
      "type": "function"
    },
    {
      "inputs": [
        {
          "internalType": "address",
          "name": "target",
          "type": "address"
        },
        {
          "internalType": "bytes",
          "name": "data",
          "type": "bytes"
        }
      ],
      "name": "delegateAndRevert",
      "outputs": [],
      "stateMutability": "nonpayable",
      "type": "function"
    },
    {
      "inputs": [
        {
          "internalType": "address",
          "name": "account",
          "type": "address"
        }
      ],
      "name": "depositTo",
      "outputs": [],
      "stateMutability": "payable",
      "type": "function"
    },
    {
      "inputs": [],
      "name": "eip712Domain",
      "outputs": [
        {
          "internalType": "bytes1",
          "name": "fields",
          "type": "bytes1"
        },
        {
          "internalType": "string",
          "name": "name",
          "type": "string"
        },
        {
          "internalType": "string",
          "name": "version",
          "type": "string"
        },
        {
          "internalType": "uint256",
          "name": "chainId",
          "type": "uint256"
        },
        {
          "internalType": "address",
          "name": "verifyingContract",
          "type": "address"
        },
        {
          "internalType": "bytes32",
          "name": "salt",
          "type": "bytes32"
        },
        {
          "internalType": "uint256[]",
          "name": "extensions",
          "type": "uint256[]"
        }
      ],
      "stateMutability": "view",
      "type": "function"
    },
    {
      "inputs": [
        {
          "internalType": "address",
          "name": "account",
          "type": "address"
        }
      ],
      "name": "getDepositInfo",
      "outputs": [
        {
          "components": [
            {
              "internalType": "uint256",
              "name": "deposit",
              "type": "uint256"
            },
            {
              "internalType": "bool",
              "name": "staked",
              "type": "bool"
            },
            {
              "internalType": "uint112",
              "name": "stake",
              "type": "uint112"
            },
            {
              "internalType": "uint32",
              "name": "unstakeDelaySec",
              "type": "uint32"
            },
            {
              "internalType": "uint48",
              "name": "withdrawTime",
              "type": "uint48"
            }
          ],
          "internalType": "struct IStakeManager.DepositInfo",
          "name": "info",
          "type": "tuple"
        }
      ],
      "stateMutability": "view",
      "type": "function"
    },
    {
      "inputs": [],
      "name": "getDomainSeparatorV4",
      "outputs": [
        {
          "internalType": "bytes32",
          "name": "",
          "type": "bytes32"
        }
      ],
      "stateMutability": "view",
      "type": "function"
    },
    {
      "inputs": [
        {
          "internalType": "address",
          "name": "sender",
          "type": "address"
        },
        {
          "internalType": "uint192",
          "name": "key",
          "type": "uint192"
        }
      ],
      "name": "getNonce",
      "outputs": [
        {
          "internalType": "uint256",
          "name": "nonce",
          "type": "uint256"
        }
      ],
      "stateMutability": "view",
      "type": "function"
    },
    {
      "inputs": [],
      "name": "getPackedUserOpTypeHash",
      "outputs": [
        {
          "internalType": "bytes32",
          "name": "",
          "type": "bytes32"
        }
      ],
      "stateMutability": "pure",
      "type": "function"
    },
    {
      "inputs": [
        {
          "internalType": "bytes",
          "name": "initCode",
          "type": "bytes"
        }
      ],
      "name": "getSenderAddress",
      "outputs": [],
      "stateMutability": "nonpayable",
      "type": "function"
    },
    {
      "inputs": [
        {
          "components": [
            {
              "internalType": "address",
              "name": "sender",
              "type": "address"
            },
            {
              "internalType": "uint256",
              "name": "nonce",
              "type": "uint256"
            },
            {
              "internalType": "bytes",
              "name": "initCode",
              "type": "bytes"
            },
            {
              "internalType": "bytes",
              "name": "callData",
              "type": "bytes"
            },
            {
              "internalType": "bytes32",
              "name": "accountGasLimits",
              "type": "bytes32"
            },
            {
              "internalType": "uint256",
              "name": "preVerificationGas",
              "type": "uint256"
            },
            {
              "internalType": "bytes32",
              "name": "gasFees",
              "type": "bytes32"
            },
            {
              "internalType": "bytes",
              "name": "paymasterAndData",
              "type": "bytes"
            },
            {
              "internalType": "bytes",
              "name": "signature",
              "type": "bytes"
            }
          ],
          "internalType": "struct PackedUserOperation",
          "name": "userOp",
          "type": "tuple"
        }
      ],
      "name": "getUserOpHash",
      "outputs": [
        {
          "internalType": "bytes32",
          "name": "",
          "type": "bytes32"
        }
      ],
      "stateMutability": "view",
      "type": "function"
    },
    {
      "inputs": [
        {
          "components": [
            {
              "components": [
                {
                  "internalType": "address",
                  "name": "sender",
                  "type": "address"
                },
                {
                  "internalType": "uint256",
                  "name": "nonce",
                  "type": "uint256"
                },
                {
                  "internalType": "bytes",
                  "name": "initCode",
                  "type": "bytes"
                },
                {
                  "internalType": "bytes",
                  "name": "callData",
                  "type": "bytes"
                },
                {
                  "internalType": "bytes32",
                  "name": "accountGasLimits",
                  "type": "bytes32"
                },
                {
                  "internalType": "uint256",
                  "name": "preVerificationGas",
                  "type": "uint256"
                },
                {
                  "internalType": "bytes32",
                  "name": "gasFees",
                  "type": "bytes32"
                },
                {
                  "internalType": "bytes",
                  "name": "paymasterAndData",
                  "type": "bytes"
                },
                {
                  "internalType": "bytes",
                  "name": "signature",
                  "type": "bytes"
                }
              ],
              "internalType": "struct PackedUserOperation[]",
              "name": "userOps",
              "type": "tuple[]"
            },
            {
              "internalType": "contract IAggregator",
              "name": "aggregator",
              "type": "address"
            },
            {
              "internalType": "bytes",
              "name": "signature",
              "type": "bytes"
            }
          ],
          "internalType": "struct IEntryPoint.UserOpsPerAggregator[]",
          "name": "opsPerAggregator",
          "type": "tuple[]"
        },
        {
          "internalType": "address payable",
          "name": "beneficiary",
          "type": "address"
        }
      ],
      "name": "handleAggregatedOps",
      "outputs": [],
      "stateMutability": "nonpayable",
      "type": "function"
    },
    {
      "inputs": [
        {
          "components": [
            {
              "internalType": "address",
              "name": "sender",
              "type": "address"
            },
            {
              "internalType": "uint256",
              "name": "nonce",
              "type": "uint256"
            },
            {
              "internalType": "bytes",
              "name": "initCode",
              "type": "bytes"
            },
            {
              "internalType": "bytes",
              "name": "callData",
              "type": "bytes"
            },
            {
              "internalType": "bytes32",
              "name": "accountGasLimits",
              "type": "bytes32"
            },
            {
              "internalType": "uint256",
              "name": "preVerificationGas",
              "type": "uint256"
            },
            {
              "internalType": "bytes32",
              "name": "gasFees",
              "type": "bytes32"
            },
            {
              "internalType": "bytes",
              "name": "paymasterAndData",
              "type": "bytes"
            },
            {
              "internalType": "bytes",
              "name": "signature",
              "type": "bytes"
            }
          ],
          "internalType": "struct PackedUserOperation[]",
          "name": "ops",
          "type": "tuple[]"
        },
        {
          "internalType": "address payable",
          "name": "beneficiary",
          "type": "address"
        }
      ],
      "name": "handleOps",
      "outputs": [],
      "stateMutability": "nonpayable",
      "type": "function"
    },
    {
      "inputs": [
        {
          "internalType": "uint192",
          "name": "key",
          "type": "uint192"
        }
      ],
      "name": "incrementNonce",
      "outputs": [],
      "stateMutability": "nonpayable",
      "type": "function"
    },
    {
      "inputs": [
        {
          "internalType": "bytes",
          "name": "callData",
          "type": "bytes"
        },
        {
          "components": [
            {
              "components": [
                {
                  "internalType": "address",
                  "name": "sender",
                  "type": "address"
                },
                {
                  "internalType": "uint256",
                  "name": "nonce",
                  "type": "uint256"
                },
                {
                  "internalType": "uint256",
                  "name": "verificationGasLimit",
                  "type": "uint256"
                },
                {
                  "internalType": "uint256",
                  "name": "callGasLimit",
                  "type": "uint256"
                },
                {
                  "internalType": "uint256",
                  "name": "paymasterVerificationGasLimit",
                  "type": "uint256"
                },
                {
                  "internalType": "uint256",
                  "name": "paymasterPostOpGasLimit",
                  "type": "uint256"
                },
                {
                  "internalType": "uint256",
                  "name": "preVerificationGas",
                  "type": "uint256"
                },
                {
                  "internalType": "address",
                  "name": "paymaster",
                  "type": "address"
                },
                {
                  "internalType": "uint256",
                  "name": "maxFeePerGas",
                  "type": "uint256"
                },
                {
                  "internalType": "uint256",
                  "name": "maxPriorityFeePerGas",
                  "type": "uint256"
                }
              ],
              "internalType": "struct EntryPoint.MemoryUserOp",
              "name": "mUserOp",
              "type": "tuple"
            },
            {
              "internalType": "bytes32",
              "name": "userOpHash",
              "type": "bytes32"
            },
            {
              "internalType": "uint256",
              "name": "prefund",
              "type": "uint256"
            },
            {
              "internalType": "uint256",
              "name": "contextOffset",
              "type": "uint256"
            },
            {
              "internalType": "uint256",
              "name": "preOpGas",
              "type": "uint256"
            }
          ],
          "internalType": "struct EntryPoint.UserOpInfo",
          "name": "opInfo",
          "type": "tuple"
        },
        {
          "internalType": "bytes",
          "name": "context",
          "type": "bytes"
        }
      ],
      "name": "innerHandleOp",
      "outputs": [
        {
          "internalType": "uint256",
          "name": "actualGasCost",
          "type": "uint256"
        }
      ],
      "stateMutability": "nonpayable",
      "type": "function"
    },
    {
      "inputs": [
        {
          "internalType": "address",
          "name": "",
          "type": "address"
        },
        {
          "internalType": "uint192",
          "name": "",
          "type": "uint192"
        }
      ],
      "name": "nonceSequenceNumber",
      "outputs": [
        {
          "internalType": "uint256",
          "name": "",
          "type": "uint256"
        }
      ],
      "stateMutability": "view",
      "type": "function"
    },
    {
      "inputs": [],
      "name": "senderCreator",
      "outputs": [
        {
          "internalType": "contract ISenderCreator",
          "name": "",
          "type": "address"
        }
      ],
      "stateMutability": "view",
      "type": "function"
    },
    {
      "inputs": [
        {
          "components": [
            {
              "internalType": "address",
              "name": "sender",
              "type": "address"
            },
            {
              "internalType": "uint256",
              "name": "nonce",
              "type": "uint256"
            },
            {
              "internalType": "bytes",
              "name": "initCode",
              "type": "bytes"
            },
            {
              "internalType": "bytes",
              "name": "callData",
              "type": "bytes"
            },
            {
              "internalType": "bytes32",
              "name": "accountGasLimits",
              "type": "bytes32"
            },
            {
              "internalType": "uint256",
              "name": "preVerificationGas",
              "type": "uint256"
            },
            {
              "internalType": "bytes32",
              "name": "gasFees",
              "type": "bytes32"
            },
            {
              "internalType": "bytes",
              "name": "paymasterAndData",
              "type": "bytes"
            },
            {
              "internalType": "bytes",
              "name": "signature",
              "type": "bytes"
            }
          ],
          "internalType": "struct PackedUserOperation",
          "name": "op",
          "type": "tuple"
        },
        {
          "internalType": "address",
          "name": "target",
          "type": "address"
        },
        {
          "internalType": "bytes",
          "name": "targetCallData",
          "type": "bytes"
        }
      ],
      "name": "simulateHandleOp",
      "outputs": [
        {
          "components": [
            {
              "internalType": "uint256",
              "name": "preOpGas",
              "type": "uint256"
            },
            {
              "internalType": "uint256",
              "name": "paid",
              "type": "uint256"
            },
            {
              "internalType": "uint256",
              "name": "accountValidationData",
              "type": "uint256"
            },
            {
              "internalType": "uint256",
              "name": "paymasterValidationData",
              "type": "uint256"
            },
            {
              "internalType": "bool",
              "name": "targetSuccess",
              "type": "bool"
            },
            {
              "internalType": "bytes",
              "name": "targetResult",
              "type": "bytes"
            }
          ],
          "internalType": "struct IEntryPointSimulations.ExecutionResult",
          "name": "",
          "type": "tuple"
        }
      ],
      "stateMutability": "nonpayable",
      "type": "function"
    },
    {
      "inputs": [
        {
          "components": [
            {
              "internalType": "address",
              "name": "sender",
              "type": "address"
            },
            {
              "internalType": "uint256",
              "name": "nonce",
              "type": "uint256"
            },
            {
              "internalType": "bytes",
              "name": "initCode",
              "type": "bytes"
            },
            {
              "internalType": "bytes",
              "name": "callData",
              "type": "bytes"
            },
            {
              "internalType": "bytes32",
              "name": "accountGasLimits",
              "type": "bytes32"
            },
            {
              "internalType": "uint256",
              "name": "preVerificationGas",
              "type": "uint256"
            },
            {
              "internalType": "bytes32",
              "name": "gasFees",
              "type": "bytes32"
            },
            {
              "internalType": "bytes",
              "name": "paymasterAndData",
              "type": "bytes"
            },
            {
              "internalType": "bytes",
              "name": "signature",
              "type": "bytes"
            }
          ],
          "internalType": "struct PackedUserOperation",
          "name": "userOp",
          "type": "tuple"
        }
      ],
      "name": "simulateValidation",
      "outputs": [
        {
          "components": [
            {
              "components": [
                {
                  "internalType": "uint256",
                  "name": "preOpGas",
                  "type": "uint256"
                },
                {
                  "internalType": "uint256",
                  "name": "prefund",
                  "type": "uint256"
                },
                {
                  "internalType": "uint256",
                  "name": "accountValidationData",
                  "type": "uint256"
                },
                {
                  "internalType": "uint256",
                  "name": "paymasterValidationData",
                  "type": "uint256"
                },
                {
                  "internalType": "bytes",
                  "name": "paymasterContext",
                  "type": "bytes"
                }
              ],
              "internalType": "struct IEntryPoint.ReturnInfo",
              "name": "returnInfo",
              "type": "tuple"
            },
            {
              "components": [
                {
                  "internalType": "uint256",
                  "name": "stake",
                  "type": "uint256"
                },
                {
                  "internalType": "uint256",
                  "name": "unstakeDelaySec",
                  "type": "uint256"
                }
              ],
              "internalType": "struct IStakeManager.StakeInfo",
              "name": "senderInfo",
              "type": "tuple"
            },
            {
              "components": [
                {
                  "internalType": "uint256",
                  "name": "stake",
                  "type": "uint256"
                },
                {
                  "internalType": "uint256",
                  "name": "unstakeDelaySec",
                  "type": "uint256"
                }
              ],
              "internalType": "struct IStakeManager.StakeInfo",
              "name": "factoryInfo",
              "type": "tuple"
            },
            {
              "components": [
                {
                  "internalType": "uint256",
                  "name": "stake",
                  "type": "uint256"
                },
                {
                  "internalType": "uint256",
                  "name": "unstakeDelaySec",
                  "type": "uint256"
                }
              ],
              "internalType": "struct IStakeManager.StakeInfo",
              "name": "paymasterInfo",
              "type": "tuple"
            },
            {
              "components": [
                {
                  "internalType": "address",
                  "name": "aggregator",
                  "type": "address"
                },
                {
                  "components": [
                    {
                      "internalType": "uint256",
                      "name": "stake",
                      "type": "uint256"
                    },
                    {
                      "internalType": "uint256",
                      "name": "unstakeDelaySec",
                      "type": "uint256"
                    }
                  ],
                  "internalType": "struct IStakeManager.StakeInfo",
                  "name": "stakeInfo",
                  "type": "tuple"
                }
              ],
              "internalType": "struct IEntryPointSimulations.AggregatorStakeInfo",
              "name": "aggregatorInfo",
              "type": "tuple"
            }
          ],
          "internalType": "struct IEntryPointSimulations.ValidationResult",
          "name": "",
          "type": "tuple"
        }
      ],
      "stateMutability": "nonpayable",
      "type": "function"
    },
    {
      "inputs": [
        {
          "internalType": "bytes4",
          "name": "",
          "type": "bytes4"
        }
      ],
      "name": "supportsInterface",
      "outputs": [
        {
          "internalType": "bool",
          "name": "",
          "type": "bool"
        }
      ],
      "stateMutability": "view",
      "type": "function"
    },
    {
      "inputs": [],
      "name": "unlockStake",
      "outputs": [],
      "stateMutability": "nonpayable",
      "type": "function"
    },
    {
      "inputs": [
        {
          "internalType": "bytes",
          "name": "initCode",
          "type": "bytes"
        },
        {
          "internalType": "address",
          "name": "sender",
          "type": "address"
        },
        {
          "internalType": "bytes",
          "name": "paymasterAndData",
          "type": "bytes"
        }
      ],
      "name": "validateSenderAndPaymaster",
      "outputs": [],
      "stateMutability": "view",
      "type": "function"
    },
    {
      "inputs": [
        {
          "internalType": "address payable",
          "name": "withdrawAddress",
          "type": "address"
        }
      ],
      "name": "withdrawStake",
      "outputs": [],
      "stateMutability": "nonpayable",
      "type": "function"
    },
    {
      "inputs": [
        {
          "internalType": "address payable",
          "name": "withdrawAddress",
          "type": "address"
        },
        {
          "internalType": "uint256",
          "name": "withdrawAmount",
          "type": "uint256"
        }
      ],
      "name": "withdrawTo",
      "outputs": [],
      "stateMutability": "nonpayable",
      "type": "function"
    },
    {
      "stateMutability": "payable",
      "type": "receive"
    }
  ],
  "bytecode": "0x610180604052604051610011906101f4565b604051809103905ff08015801561002a573d5f5f3e3d5ffd5b506001600160a01b031661016052348015610043575f5ffd5b5060408051808201825260078152664552433433333760c81b602080830191909152825180840190935260018352603160f81b9083015290610086826002610185565b61012052610095816003610185565b61014052815160208084019190912060e052815190820120610100524660a05261012160e05161010051604080517f8b73c3c69bb8fe3d512ecc4cf759cc79239f7b179b0ffacaa9a75d522b39400f60208201529081019290925260608201524660808201523060a08201525f9060c00160405160208183030381529060405280519060200120905090565b60805250503060c0526103e843106101805760405162461bcd60e51b815260206004820152601660248201527f73686f756c64206e6f74206265206465706c6f7965640000000000000000000060448201526064015b60405180910390fd5b6103ab565b5f6020835110156101a057610199836101b7565b90506101b1565b816101ab8482610299565b5060ff90505b92915050565b5f5f829050601f815111156101e1578260405163305a27a960e01b81526004016101779190610353565b80516101ec82610388565b179392505050565b61054280614b1f83390190565b634e487b7160e01b5f52604160045260245ffd5b600181811c9082168061022957607f821691505b60208210810361024757634e487b7160e01b5f52602260045260245ffd5b50919050565b601f82111561029457805f5260205f20601f840160051c810160208510156102725750805b601f840160051c820191505b81811015610291575f815560010161027e565b50505b505050565b81516001600160401b038111156102b2576102b2610201565b6102c6816102c08454610215565b8461024d565b6020601f8211600181146102f8575f83156102e15750848201515b5f19600385901b1c1916600184901b178455610291565b5f84815260208120601f198516915b828110156103275787850151825560209485019460019092019101610307565b508482101561034457868401515f19600387901b60f8161c191681555b50505050600190811b01905550565b602081525f82518060208401528060208501604085015e5f604082850101526040601f19601f83011684010191505092915050565b80516020808301519190811015610247575f1960209190910360031b1b16919050565b60805160a05160c05160e0516101005161012051610140516101605161472b6103f45f395f50505f6120af01525f61207d01525f50505f50505f50505f50505f505061472b5ff3fe608060405260043610610149575f3560e01c80635287ce12116100b35780639b249f691161006d5780639b249f69146104e8578063b760faf914610507578063bb9fe6bf1461051a578063c23a5cea1461052e578063c3bce0091461054d578063dbed18e014610579575f5ffd5b80635287ce121461030f57806370a0823114610423578063765e827f1461045757806384b0196e14610476578063850aaf621461049d57806397b2dcb9146104bc575f5ffd5b8063154e58dc11610104578063154e58dc1461022b5780631b2e01b81461025d5780631f5ae7bb14610293578063205c2878146102b257806322cdde4c146102d157806335567e1a146102f0575f5ffd5b806242dc531461015d57806301ffc9a71461018f5780630396cb60146101be57806309ccb880146101d15780630bd28e3b146101f857806313c65a6e14610217575f5ffd5b366101595761015733610598565b005b5f5ffd5b348015610168575f5ffd5b5061017c6101773660046138c9565b6105b9565b6040519081526020015b60405180910390f35b34801561019a575f5ffd5b506101ae6101a936600461399e565b505f90565b6040519015158152602001610186565b6101576101cc3660046139c5565b61074f565b3480156101dc575f5ffd5b506004546040516001600160a01b039091168152602001610186565b348015610203575f5ffd5b506101576102123660046139fe565b6109da565b348015610222575f5ffd5b5060055461017c565b348015610236575f5ffd5b507f29a0bca4af4be3421398da00295e58e6d7de38cb492214754cb6a47507dd6f8e61017c565b348015610268575f5ffd5b5061017c610277366004613a17565b600160209081525f928352604080842090915290825290205481565b34801561029e575f5ffd5b506101576102ad366004613a4a565b610a10565b3480156102bd575f5ffd5b506101576102cc366004613aca565b610ada565b3480156102dc575f5ffd5b5061017c6102eb366004613b0b565b610c25565b3480156102fb575f5ffd5b5061017c61030a366004613a17565b610c6e565b34801561031a575f5ffd5b506103c9610329366004613b3c565b6040805160a0810182525f80825260208201819052918101829052606081018290526080810191909152506001600160a01b03165f9081526020818152604091829020825160a0810184528154815260019091015460ff811615159282019290925261010082046001600160701b031692810192909252600160781b810463ffffffff166060830152600160981b900465ffffffffffff16608082015290565b60405161018691905f60a082019050825182526020830151151560208301526001600160701b03604084015116604083015263ffffffff606084015116606083015265ffffffffffff608084015116608083015292915050565b34801561042e575f5ffd5b5061017c61043d366004613b3c565b6001600160a01b03165f9081526020819052604090205490565b348015610462575f5ffd5b50610157610471366004613b97565b610cb3565b348015610481575f5ffd5b5061048a610dc1565b6040516101869796959493929190613c17565b3480156104a8575f5ffd5b506101576104b7366004613cad565b610e03565b3480156104c7575f5ffd5b506104db6104d6366004613cfd565b610e7e565b6040516101869190613d5c565b3480156104f3575f5ffd5b50610157610502366004613daa565b610fa0565b610157610515366004613b3c565b610598565b348015610525575f5ffd5b50610157611047565b348015610539575f5ffd5b50610157610548366004613b3c565b611179565b348015610558575f5ffd5b5061056c610567366004613b0b565b61139e565b6040516101869190613de8565b348015610584575f5ffd5b50610157610593366004613b97565b61151e565b60015b60058110156105ac5760010161059b565b6105b58261185e565b5050565b5f5f5a90503330146106125760405162461bcd60e51b815260206004820152601760248201527f4141393220696e7465726e616c2063616c6c206f6e6c7900000000000000000060448201526064015b60405180910390fd5b8451606081015160a082015181016127100160405a603f028161063757610637613ebb565b04101561064d5763deaddead60e01b5f5260205ffd5b87515f90156106f1575f610666845f01515f8c866118af565b9050806106ef575f61067760405190565b90505f6106856108006118c5565b8051909150156106df57855f01516001600160a01b03168b602001517f1c4fada7374c0a9ee8841fc38afe82932dc0f8e69012e927f061a8bae611a2018860200151846040516106d6929190613ecf565b60405180910390a35b6106e882604052565b6001935050505b505b5f88608001515a860301905061073f828a8a8a8080601f0160208091040260200160405190810160405280939291908181526020018383808284375f920191909152508792506118f6915050565b955050505050505b949350505050565b335f90815260208190526040902063ffffffff82166107b05760405162461bcd60e51b815260206004820152601a60248201527f6d757374207370656369667920756e7374616b652064656c61790000000000006044820152606401610609565b600181015463ffffffff600160781b909104811690831610156108155760405162461bcd60e51b815260206004820152601c60248201527f63616e6e6f7420646563726561736520756e7374616b652074696d65000000006044820152606401610609565b60018101545f9061083590349061010090046001600160701b0316613efb565b90505f811161087b5760405162461bcd60e51b81526020600482015260126024820152711b9bc81cdd185ad9481cdc1958da599a595960721b6044820152606401610609565b6001600160701b038111156108c35760405162461bcd60e51b815260206004820152600e60248201526d7374616b65206f766572666c6f7760901b6044820152606401610609565b6040805160a08101825283548152600160208083018281526001600160701b0386811685870190815263ffffffff8a8116606088018181525f60808a0181815233808352828a52918c90209a518b55965199909801805494519151965165ffffffffffff16600160981b0265ffffffffffff60981b1997909416600160781b029690961669ffffffffffffffffffff60781b1991909516610100026effffffffffffffffffffffffffff0019991515999099166effffffffffffffffffffffffffffff1990941693909317979097179190911691909117179055835185815290810192909252917fa5ae833d0bb1dcd632d98a8b70973e8516812898e19bf27b70071ebc8dc52c01910160405180910390a2505050565b335f9081526001602090815260408083206001600160c01b03851684529091528120805491610a0883613f0e565b919050555050565b83158015610a2657506001600160a01b0383163b155b15610a435760405162461bcd60e51b815260040161060990613f26565b60148110610ab9575f610a596014828486613f5e565b610a6291613f85565b60601c9050803b5f03610ab75760405162461bcd60e51b815260206004820152601b60248201527f41413330207061796d6173746572206e6f74206465706c6f79656400000000006044820152606401610609565b505b60405162461bcd60e51b8152602060048201525f6024820152604401610609565b335f908152602081905260409020805480831115610b3a5760405162461bcd60e51b815260206004820152601960248201527f576974686472617720616d6f756e7420746f6f206c61726765000000000000006044820152606401610609565b610b448382613fc3565b8255604080516001600160a01b03861681526020810185905233917fd1c19fbcd4551a5edfb66d43d2e337c04837afda3482b42bdf569a8fccdae5fb910160405180910390a25f846001600160a01b0316846040515f6040518083038185875af1925050503d805f8114610bd3576040519150601f19603f3d011682016040523d82523d5f602084013e610bd8565b606091505b5050905080610c1e5760405162461bcd60e51b81526020600482015260126024820152716661696c656420746f20776974686472617760701b6044820152606401610609565b5050505050565b5f5f610c3083611ad7565b9050610c67610c3e60055490565b610c488584611b7d565b60405161190160f01b8152600281019290925260228201526042902090565b9392505050565b6001600160a01b0382165f9081526001602090815260408083206001600160c01b038516845290915290819020549082901b67ffffffffffffffff1916175b92915050565b610cbb611b97565b815f816001600160401b03811115610cd557610cd561370a565b604051908082528060200260200182016040528015610d0e57816020015b610cfb6135a3565b815260200190600190039081610cf35790505b509050610d1e8585835f5f611c06565b506040515f907fbb47ee3e183a558b1a2ff0874b079f3fc5478b7454eacf2bfc5af2ff5878f972908290a15f5b83811015610da657610d9a81888884818110610d6957610d69613fd6565b9050602002810190610d7b9190613fea565b858481518110610d8d57610d8d613fd6565b6020026020010151611c89565b90910190600101610d4b565b50610db18482611f57565b505050610dbc61204c565b505050565b5f6060805f5f5f6060610dd2612076565b610dda6120a8565b604080515f80825260208201909252600f60f81b9b939a50919850469750309650945092509050565b5f5f846001600160a01b03168484604051610e1f929190614009565b5f60405180830381855af49150503d805f8114610e57576040519150601f19603f3d011682016040523d82523d5f602084013e610e5c565b606091505b50915091508181604051632650415560e21b8152600401610609929190614018565b610eb46040518060c001604052805f81526020015f81526020015f81526020015f81526020015f15158152602001606081525090565b610ebc611b97565b610ec46135a3565b610ecd866120d5565b5f5f610eda5f89856121ad565b915091505f610eea5f8a86611c89565b90505f60606001600160a01b038a1615610f5d57896001600160a01b03168989604051610f18929190614009565b5f604051808303815f865af19150503d805f8114610f51576040519150601f19603f3d011682016040523d82523d5f602084013e610f56565b606091505b5090925090505b6040518060c0016040528087608001518152602001848152602001868152602001858152602001831515815260200182815250965050505050505061074761204c565b5f610fb36004546001600160a01b031690565b6001600160a01b031663570e1a3684846040518363ffffffff1660e01b8152600401610fe092919061405a565b6020604051808303815f875af1158015610ffc573d5f5f3e3d5ffd5b505050506040513d601f19601f82011682018060405250810190611020919061406d565b604051633653dc0360e11b81526001600160a01b0382166004820152909150602401610609565b335f90815260208190526040812060018101549091600160781b90910463ffffffff1690036110a55760405162461bcd60e51b815260206004820152600a6024820152691b9bdd081cdd185ad95960b21b6044820152606401610609565b600181015460ff166110ed5760405162461bcd60e51b8152602060048201526011602482015270616c726561647920756e7374616b696e6760781b6044820152606401610609565b60018101545f9061110b90600160781b900463ffffffff1642614088565b60018301805460ff65ffffffffffff60981b011916600160981b65ffffffffffff841690810260ff19169190911790915560405190815290915033907ffa9b3c14cc825c412c9ed81b3ba365a5b459439403f18829e572ed53a4180f0a906020015b60405180910390a25050565b335f908152602081905260409020600181015461010090046001600160701b0316806111de5760405162461bcd60e51b81526020600482015260146024820152734e6f207374616b6520746f20776974686472617760601b6044820152606401610609565b6001820154600160981b900465ffffffffffff1661123e5760405162461bcd60e51b815260206004820152601d60248201527f6d7573742063616c6c20756e6c6f636b5374616b6528292066697273740000006044820152606401610609565b600182015442600160981b90910465ffffffffffff1611156112a25760405162461bcd60e51b815260206004820152601b60248201527f5374616b65207769746864726177616c206973206e6f742064756500000000006044820152606401610609565b600182018054610100600160c81b0319169055604080516001600160a01b03851681526020810183905233917fb7c918e0e249f999e965cafeb6c664271b3f4317d296461500e71da39f0cbda3910160405180910390a25f836001600160a01b0316826040515f6040518083038185875af1925050503d805f8114611342576040519150601f19603f3d011682016040523d82523d5f602084013e611347565b606091505b50509050806113985760405162461bcd60e51b815260206004820152601860248201527f6661696c656420746f207769746864726177207374616b6500000000000000006044820152606401610609565b50505050565b6113a661362a565b6113ae6135a3565b6113b7836120d5565b5f5f6113c45f86856121ad565b915091505f6113d9845f015160e001516123ce565b8451519091505f906113ea906123ce565b905061140760405180604001604052805f81526020015f81525090565b365f61141660408b018b6140a6565b90925090505f601482101561142b575f611445565b61143860145f8486613f5e565b61144191613f85565b60601c5b9050611450816123ce565b93505050505f8590505f6040518060a0016040528089608001518152602001896040015181526020018881526020018781526020016114908a6060015190565b9052905061149c6136d5565b6001600160a01b038316158015906114be57506001836001600160a01b031614155b156114eb576040518060400160405280846001600160a01b031681526020016114e6856123ce565b905290505b6040805160a081018252928352602083019590955293810192909252506060810192909252608082015295945050505050565b611526611b97565b815f805b82811015611661573686868381811061154557611545613fd6565b905060200281019061155791906140e8565b9050365f61156583806140fc565b90925090505f61157b6040850160208601613b3c565b9050806001600160a01b0381166001036115b45760405163086a9f7560e41b81526001600160a01b039091166004820152602401610609565b506001600160a01b03811615611651576001600160a01b038116632dd8113384846115e260408901896140a6565b6040518563ffffffff1660e01b81526004016116019493929190614261565b5f604051808303815f87803b158015611618575f5ffd5b505af1925050508015611629575060015b6116515760405163086a9f7560e41b81526001600160a01b0382166004820152602401610609565b509390930192505060010161152a565b505f816001600160401b0381111561167b5761167b61370a565b6040519080825280602002602001820160405280156116b457816020015b6116a16135a3565b8152602001906001900390816116995790505b5090505f805b8481101561172e57368888838181106116d5576116d5613fd6565b90506020028101906116e791906140e8565b9050365f6116f583806140fc565b90925090505f61170b6040850160208601613b3c565b905061171a838389848a611c06565b909501945050600190920191506116ba9050565b506040517fbb47ee3e183a558b1a2ff0874b079f3fc5478b7454eacf2bfc5af2ff5878f972905f90a1505f80805b85811015611846573689898381811061177757611777613fd6565b905060200281019061178991906140e8565b905061179b6040820160208301613b3c565b6001600160a01b03167f575ff3acadd5ab348fe1855e217e0f3678f8d767d7494c9f9fefbee2e17cca4d60405160405180910390a2365f6117dc83806140fc565b9092509050805f5b81811015611835576118268885858481811061180257611802613fd6565b90506020028101906118149190613fea565b8b8b81518110610d8d57610d8d613fd6565b600198890198970196016117e4565b50506001909301925061175c915050565b506118518682611f57565b5050505050610dbc61204c565b6001600160a01b0381165f8181526020818152604091829020805434019081905591518281529192917f2da466a7b24304f47e87fa2e1e5a81b9831ce54fec19055ce277ca2f39ba42c4910161116d565b5f5f5f845160208601878987f195945050505050565b60603d82156118d957828111156118d95750815b604051602082018101604052818152815f602083013e9392505050565b5f5f5a85519091505f908161190a8261241f565b90505f8260e0015190505f89608001518803905061192c81856060015161243a565b90970196505f6001600160a01b0382166119495783519450611a1d565b8194505f89511115611a1d5782880296505f5a905060028c6002811115611972576119726142ec565b14611a0457826001600160a01b0316637c627b218660a001518e8d8c896040518663ffffffff1660e01b81526004016119ae9493929190614300565b5f604051808303815f88803b1580156119c5575f5ffd5b5087f1935050505080156119d7575060015b611a04575f6119e76108006118c5565b905080604051632b5e552f60e21b81526004016106099190614347565b5f5a82039050611a18818760a0015161243a565b925050505b805a8703018801975082880296505f8a60400151905087811015611a805760028c6002811115611a4f57611a4f6142ec565b03611a7157809750611a608b61245a565b611a6c8b5f8a8c6124a9565b611ac8565b63deadaa5160e01b5f5260205ffd5b6001600160a01b0386165f90815260208190526040812080548a840390810190915590808e6002811115611ab657611ab66142ec565b149050611ac58d828c8e6124a9565b50505b50505050505050949350505050565b5f3681611ae760408501856140a6565b91509150611af58282612524565b611b0257505f9392505050565b5f611b18611b136020870187613b3c565b61254d565b905060148211611b5d576040516001600160601b0319606083901b1660208201526034015b604051602081830303815290604052805190602001209350505050919050565b80611b6b8360148187613f5e565b604051602001611b3d93929190614359565b5f611b888383612616565b80519060200120905092915050565b7f9b779b17422d0df92223018b32b4d1fa46e071723d6817e2486d003becc55f005c15611bd757604051633ee5aeb560e01b815260040160405180910390fd5b611c0460017f9b779b17422d0df92223018b32b4d1fa46e071723d6817e2486d003becc55f005b9061270f565b565b835f5b81811015611c7f575f8582850181518110611c2657611c26613fd6565b602002602001015190505f5f611c628487018b8b87818110611c4a57611c4a613fd6565b9050602002810190611c5c9190613fea565b856121ad565b91509150611c7484870183838a612716565b505050600101611c09565b5095945050505050565b5f5f5a90505f611c9a846060015190565b90505f5f611ca760405190565b9050365f611cb860608a018a6140a6565b9150915060605f826003811115611cce57843591505b506372288ed160e01b6001600160e01b0319821601611d7b575f8b8b60200151604051602401611cff92919061437f565b60408051601f198184030181529181526020820180516001600160e01b0316638dd7712f60e01b1790525190915030906242dc5390611d469084908f908d9060240161444a565b604051602081830303815290604052915060e01b6020820180516001600160e01b038381831617835250505050925050611dd0565b306001600160a01b03166242dc5385858d8b604051602401611da0949392919061447e565b604051602081830303815290604052915060e01b6020820180516001600160e01b03838183161783525050505091505b60205f8351602085015f305af195505f519850611dec85604052565b505050505080611f4d575f3d80602003611e0a5760205f5f3e5f5191505b5063deaddead60e01b8103611e5d5787604051631101335b60e11b8152600401610609918152604060208201819052600f908201526e41413935206f7574206f662067617360881b606082015260800190565b63deadaa5160e01b8103611eac575f86608001515a611e7c9087613fc3565b611e869190613efb565b6040880151909150611e978861245a565b611ea3885f83856124a9565b9550611f4b9050565b5f611eb660405190565b875180516020808b01519201519293506001600160a01b0316917ff62676f440ff169a3a9afdbf812e89e7f95975ee8e5c31214ffdef631c5f479290611efd6108006118c5565b604051611f0b929190613ecf565b60405180910390a3611f1c81604052565b5f87608001515a611f2d9088613fc3565b611f379190613efb565b9050611f4660028987846118f6565b965050505b505b5050509392505050565b6001600160a01b038216611fad5760405162461bcd60e51b815260206004820152601860248201527f4141393020696e76616c69642062656e656669636961727900000000000000006044820152606401610609565b5f826001600160a01b0316826040515f6040518083038185875af1925050503d805f8114611ff6576040519150601f19603f3d011682016040523d82523d5f602084013e611ffb565b606091505b5050905080610dbc5760405162461bcd60e51b815260206004820152601f60248201527f41413931206661696c65642073656e6420746f2062656e6566696369617279006044820152606401610609565b611c045f7f9b779b17422d0df92223018b32b4d1fa46e071723d6817e2486d003becc55f00611bfe565b60606120a37f000000000000000000000000000000000000000000000000000000000000000060026128b0565b905090565b60606120a37f000000000000000000000000000000000000000000000000000000000000000060036128b0565b6120dd612959565b30631f5ae7bb6120f060408401846140a6565b6120fd6020860186613b3c565b61210a60e08701876140a6565b6040518663ffffffff1660e01b815260040161212a9594939291906144b3565b5f6040518083038186803b158015612140575f5ffd5b505afa925050508015612151575060015b6121aa5761215d6144f4565b806308c379a0036121a0575061217161450c565b8061217c57506121a2565b8051156105b5575f81604051631101335b60e11b8152600401610609929190613ecf565b505b3d5f5f3e3d5ffd5b50565b5f5f5f5a84519091506121c08682612a91565b5f6121ca60405190565b90506121d587610c25565b60208701526121e381604052565b604082015161012083015161010084015160a08501516080860151606087015160c088015186171717171717896effffffffffffffffffffffffffffff8211156122775760408051631101335b60e11b815260048101929092526024820152601860448201527f41413934206761732076616c756573206f766572666c6f7700000000000000006064820152608401610609565b505f6122a68560c081015160a08201516080830151606084015160408501516101009095015194010101010290565b60408a0181905290506122bb8b8b8b84612bd5565b97506122ce855f01518660200151612cbc565b8b906123245760408051631101335b60e11b815260048101929092526024820152601a60448201527f4141323520696e76616c6964206163636f756e74206e6f6e63650000000000006064820152608401610609565b50825a87031115612381578a604051631101335b60e11b8152600401610609918152604060208201819052601e908201527f41413236206f76657220766572696669636174696f6e4761734c696d69740000606082015260800190565b60e08501516060906001600160a01b0316156123a7576123a28c8c8c612d08565b985090505b8060608b015260a08b01355a8803018a608001818152505050505050505050935093915050565b6040805180820182525f80825260208083018281526001600160a01b03959095168252819052919091206001015461010081046001600160701b03168252600160781b900463ffffffff1690915290565b6101008101516101208201515f919061074782488301612e0c565b5f619c408301821161244d57505f610cad565b506064919003600a020490565b80518051602080840151928101516040519081526001600160a01b0390921692917f67b4fa9642f42120bf031f3051d1824b0fe25627945b27b8a6a65d5761d5482e910160405180910390a350565b835160e081015181516020808801519301516040516001600160a01b039384169492909316927f49628fd1471006c1482da88028e9ce4dbb080b815c9b0344d39e5a8e6ec1419f916125169189908990899093845291151560208401526040830152606082015260800190565b60405180910390a450505050565b5f600282101561253557505f610cad565b5050613b8160f11b90356001600160601b0319161490565b5f5f60175f5f853c505f516001600160e81b0319811661ef0160f01b14612604575f836001600160a01b03163b116125bc5760405162461bcd60e51b815260206004820152601260248201527173656e64657220686173206e6f20636f646560701b6044820152606401610609565b60405162461bcd60e51b815260206004820152601860248201527f6e6f7420616e204549502d373730322064656c656761746500000000000000006044820152606401610609565b60481c6001600160a01b031692915050565b60605f6126266020850185613b3c565b905060208401355f84810361264f5761264a61264560408801886140a6565b612e21565b612651565b845b90505f61266461264560608901896140a6565b9050608087013560a088013560c08901355f61268661264560e08d018d6140a6565b604080517f29a0bca4af4be3421398da00295e58e6d7de38cb492214754cb6a47507dd6f8e60208201526001600160a01b039a909a168a82015260608a019890985260808901969096525060a087019390935260c086019190915260e0850152610100840152610120808401919091528151808403909101815261014090920190529392505050565b80825d5050565b5f5f61272185612e33565b91509150816001600160a01b0316836001600160a01b0316146127875785604051631101335b60e11b81526004016106099181526040602082018190526014908201527320a0991a1039b4b3b730ba3ab9329032b93937b960611b606082015260800190565b80156127df5785604051631101335b60e11b81526004016106099181526040602082018190526017908201527f414132322065787069726564206f72206e6f7420647565000000000000000000606082015260800190565b5f6127e985612e33565b925090506001600160a01b038116156128455786604051631101335b60e11b81526004016106099181526040602082018190526014908201527320a0999a1039b4b3b730ba3ab9329032b93937b960611b606082015260800190565b81156128a75786604051631101335b60e11b81526004016106099181526040602082018190526021908201527f41413332207061796d61737465722065787069726564206f72206e6f742064756060820152606560f81b608082015260a00190565b50505050505050565b606060ff83146128ca576128c383612e83565b9050610cad565b8180546128d690614586565b80601f016020809104026020016040519081016040528092919081815260200182805461290290614586565b801561294d5780601f106129245761010080835404028352916020019161294d565b820191905f5260205f20905b81548152906001019060200180831161293057829003601f168201915b50505050509050610cad565b6040516135a560f21b60208201526001600160601b03193060601b166022820152600160f81b60368201525f9060370160408051808303601f190181529190528051602090910120600480546001600160a01b0319166001600160a01b03831617905590506121aa60408051808201825260078152664552433433333760c81b6020918201528151808301835260018152603160f81b9082015281517f8b73c3c69bb8fe3d512ecc4cf759cc79239f7b179b0ffacaa9a75d522b39400f818301527f364da28a5c92bcc87fe97c8813a6c6b8a3a049b0ea0a328fcb0b4f0e00337586818401527fc89efdaa54c0f20c7adf612882df0950f5a951637e0307cdcb4c672f298b8bc660608201524660808201523060a0808301919091528351808303909101815260c09091019092528151910120600555565b612a9e6020830183613b3c565b6001600160a01b0316815260208083013590820152612ac06080830135612ec0565b6060830152604082015260a082013560c080830191909152612ae490830135612ec0565b610100830152610120820152365f612aff60e08501856140a6565b90925090508015611398576034811015612b5b5760405162461bcd60e51b815260206004820152601d60248201527f4141393320696e76616c6964207061796d6173746572416e64446174610000006044820152606401610609565b5f612b668383612edf565b60a0870152608086015290506001600160a01b038116612bc15760405162461bcd60e51b815260206004820152601660248201527520a09c9c1034b73b30b634b2103830bcb6b0b9ba32b960511b6044820152606401610609565b6001600160a01b031660e084015250505050565b815180515f9190612bf38786612bee60408a018a6140a6565b612f46565b60e08201515f6001600160a01b038216612c34576001600160a01b0383165f90815260208190526040902054868111612c2e57808703612c30565b5f5b9150505b612c40898989846132e0565b94506001600160a01b038216612cb057612c5a83876133cb565b612cb05788604051631101335b60e11b81526004016106099181526040602082018190526017908201527f41413231206469646e2774207061792070726566756e64000000000000000000606082015260800190565b50505050949350505050565b6001600160a01b0382165f90815260016020908152604080832084821c80855292528220805484916001600160401b038316919085612cfa83613f0e565b909155501495945050505050565b60605f5f5a845160e081015160408701519293509091612d2882826133cb565b612d7e5788604051631101335b60e11b8152600401610609918152604060208201819052601e908201527f41413331207061796d6173746572206465706f73697420746f6f206c6f770000606082015260800190565b6080830151612d8e8a8a8a613404565b9097509550805a86031115612dff5789604051631101335b60e11b81526004016106099181526040602082018190526027908201527f41413336206f766572207061796d6173746572566572696669636174696f6e47606082015266185cd31a5b5a5d60ca1b608082015260a00190565b5050505050935093915050565b5f818310612e1a5781610c67565b5090919050565b5f604051828085833790209392505050565b5f5f825f03612e4657505f928392509050565b5f612e508461350d565b9050806040015165ffffffffffff16421180612e785750806020015165ffffffffffff164211155b905194909350915050565b60605f612e8f8361357c565b6040805160208082528183019092529192505f91906020820181803683375050509182525060208101929092525090565b5f5f612ecc8360801c90565b6001600160801b03841691509150915091565b5f8080612eef6014828688613f5e565b612ef891613f85565b60601c612f09602460148789613f5e565b612f12916145b8565b60801c612f2360346024888a613f5e565b612f2c916145b8565b9194506001600160801b0316925060801c90509250925092565b801561139857825151612f598383612524565b15612fe3576014821115612fdd576004548451604001516001600160a01b039091169063c09ad0d99083612f90866014818a613f5e565b6040518563ffffffff1660e01b8152600401612fae939291906145ee565b5f604051808303815f88803b158015612fc5575f5ffd5b5087f1158015612fd7573d5f5f3e3d5ffd5b50505050505b50611398565b6001600160a01b0381163b156130455784604051631101335b60e11b8152600401610609918152604060208201819052601f908201527f414131302073656e64657220616c726561647920636f6e737472756374656400606082015260800190565b60148210156130a05784604051631101335b60e11b81526004016106099181526040602082018190526017908201527f4141393920696e6974436f646520746f6f20736d616c6c000000000000000000606082015260800190565b5f6130b36004546001600160a01b031690565b6001600160a01b031663570e1a36865f01516040015186866040518463ffffffff1660e01b81526004016130e892919061405a565b6020604051808303815f8887f1158015613104573d5f5f3e3d5ffd5b50505050506040513d601f19601f82011682018060405250810190613129919061406d565b90506001600160a01b03811661318b5785604051631101335b60e11b8152600401610609918152604060208201819052601b908201527f4141313320696e6974436f6465206661696c6564206f72204f4f470000000000606082015260800190565b816001600160a01b0316816001600160a01b0316146131f55785604051631101335b60e11b815260040161060991815260406020808301829052908201527f4141313420696e6974436f6465206d7573742072657475726e2073656e646572606082015260800190565b806001600160a01b03163b5f036132575785604051631101335b60e11b815260040161060991815260406020808301829052908201527f4141313520696e6974436f6465206d757374206372656174652073656e646572606082015260800190565b5f6132656014828688613f5e565b61326e91613f85565b60601c9050826001600160a01b031686602001517fd51a9c61267aa6196961883ecf5ff2da6619c37dac0fa92122513fb32c032d2d83895f015160e001516040516132cf9291906001600160a01b0392831681529116602082015260400190565b60405180910390a350505050505050565b8151604081015190515f919082806132f760405190565b90505f888860200151886040516024016133139392919061461b565b60408051601f19818403018152919052602080820180516001600160e01b03166306608bdf60e21b178152825192935090915f9182888af192505f51955060203d1461335d575f92505b61336682604052565b5050806133c057816001600160a01b03163b5f036133995787604051631101335b60e11b8152600401610609919061463f565b876133a56108006118c5565b6040516365c8fd4d60e01b815260040161060992919061467d565b505050949350505050565b6001600160a01b0382165f9081526020819052604081208054838110156133f6575f92505050610cad565b839003905550600192915050565b60605f5f61341160405190565b90505f85856020015186604001516040516024016134319392919061461b565b60408051601f198184030181529190526020810180516001600160e01b03166314add44b60e21b178152865160e08101516080909101518351939450909290915f9182918291829182918291829190828b8bf194503d9050805f8a3e6020890151995088519250606081039150604089019a508a5193508415806134b6575082604014155b806134c357508184601f01105b156134ef578d6134d46108006118c5565b6040516365c8fd4d60e01b81526004016106099291906146b9565b601f19601f8201168901604052505050505050505050935093915050565b604080516060810182525f80825260208201819052918101919091528160a081901c65ffffffffffff81165f03613547575065ffffffffffff5b604080516060810182526001600160a01b03909316835260d09490941c602083015265ffffffffffff16928101929092525090565b5f60ff8216601f811115610cad57604051632cd44ac360e21b815260040160405180910390fd5b6040518060a0016040528061360c6040518061014001604052805f6001600160a01b031681526020015f81526020015f81526020015f81526020015f81526020015f81526020015f81526020015f6001600160a01b031681526020015f81526020015f81525090565b81526020015f81526020015f81526020015f81526020015f81525090565b6040518060a001604052806136636040518060a001604052805f81526020015f81526020015f81526020015f8152602001606081525090565b815260200161368360405180604001604052805f81526020015f81525090565b81526020016136a360405180604001604052805f81526020015f81525090565b81526020016136c360405180604001604052805f81526020015f81525090565b81526020016136d06136d5565b905290565b60405180604001604052805f6001600160a01b031681526020016136d060405180604001604052805f81526020015f81525090565b634e487b7160e01b5f52604160045260245ffd5b60a081018181106001600160401b038211171561373d5761373d61370a565b60405250565b601f8201601f191681016001600160401b03811182821017156137685761376861370a565b6040525050565b60405161377e61014082613743565b90565b6001600160a01b03811681146121aa575f5ffd5b80356137a081613781565b919050565b5f8183036101c08112156137b7575f5ffd5b6040516137c38161371e565b8092506101408212156137d4575f5ffd5b6137dc61376f565b91506137e784613795565b82526020848101359083015260408085013590830152606080850135908301526080808501359083015260a0808501359083015260c0808501359083015261383160e08501613795565b60e0830152610100848101359083015261012080850135908301529081526101408301356020820152610160830135604082015261018083013560608201526101a090920135608090920191909152919050565b5f5f83601f840112613895575f5ffd5b5081356001600160401b038111156138ab575f5ffd5b6020830191508360208285010111156138c2575f5ffd5b9250929050565b5f5f5f5f61020085870312156138dd575f5ffd5b84356001600160401b038111156138f2575f5ffd5b8501601f81018713613902575f5ffd5b80356001600160401b0381111561391b5761391b61370a565b604051613932601f8301601f191660200182613743565b818152886020838501011115613946575f5ffd5b816020840160208301375f6020838301015280965050505061396b86602087016137a5565b92506101e08501356001600160401b03811115613986575f5ffd5b61399287828801613885565b95989497509550505050565b5f602082840312156139ae575f5ffd5b81356001600160e01b031981168114610c67575f5ffd5b5f602082840312156139d5575f5ffd5b813563ffffffff81168114610c67575f5ffd5b80356001600160c01b03811681146137a0575f5ffd5b5f60208284031215613a0e575f5ffd5b610c67826139e8565b5f5f60408385031215613a28575f5ffd5b8235613a3381613781565b9150613a41602084016139e8565b90509250929050565b5f5f5f5f5f60608688031215613a5e575f5ffd5b85356001600160401b03811115613a73575f5ffd5b613a7f88828901613885565b9096509450506020860135613a9381613781565b925060408601356001600160401b03811115613aad575f5ffd5b613ab988828901613885565b969995985093965092949392505050565b5f5f60408385031215613adb575f5ffd5b8235613ae681613781565b946020939093013593505050565b5f6101208284031215613b05575f5ffd5b50919050565b5f60208284031215613b1b575f5ffd5b81356001600160401b03811115613b30575f5ffd5b61074784828501613af4565b5f60208284031215613b4c575f5ffd5b8135610c6781613781565b5f5f83601f840112613b67575f5ffd5b5081356001600160401b03811115613b7d575f5ffd5b6020830191508360208260051b85010111156138c2575f5ffd5b5f5f5f60408486031215613ba9575f5ffd5b83356001600160401b03811115613bbe575f5ffd5b613bca86828701613b57565b9094509250506020840135613bde81613781565b809150509250925092565b5f81518084528060208401602086015e5f602082860101526020601f19601f83011685010191505092915050565b60ff60f81b8816815260e060208201525f613c3560e0830189613be9565b8281036040840152613c478189613be9565b606084018890526001600160a01b038716608085015260a0840186905283810360c0850152845180825260208087019350909101905f5b81811015613c9c578351835260209384019390920191600101613c7e565b50909b9a5050505050505050505050565b5f5f5f60408486031215613cbf575f5ffd5b8335613cca81613781565b925060208401356001600160401b03811115613ce4575f5ffd5b613cf086828701613885565b9497909650939450505050565b5f5f5f5f60608587031215613d10575f5ffd5b84356001600160401b03811115613d25575f5ffd5b613d3187828801613af4565b9450506020850135613d4281613781565b925060408501356001600160401b03811115613986575f5ffd5b60208152815160208201526020820151604082015260408201516060820152606082015160808201526080820151151560a08201525f60a083015160c08084015261074760e0840182613be9565b5f5f60208385031215613dbb575f5ffd5b82356001600160401b03811115613dd0575f5ffd5b613ddc85828601613885565b90969095509350505050565b602080825282516101408383015280516101608401529081015161018083015260408101516101a083015260608101516101c08301526080015160a06101e08301525f90613e3a610200840182613be9565b90506020840151613e58604085018280518252602090810151910152565b506040840151805160808581019190915260209182015160a08601526060860151805160c087015282015160e086015285015180516001600160a01b0316610100860152808201518051610120870152909101516101408501525b509392505050565b634e487b7160e01b5f52601260045260245ffd5b828152604060208201525f6107476040830184613be9565b634e487b7160e01b5f52601160045260245ffd5b80820180821115610cad57610cad613ee7565b5f60018201613f1f57613f1f613ee7565b5060010190565b602081525f610cad60208301601981527810504c8c081858d8dbdd5b9d081b9bdd0819195c1b1bde5959603a1b602082015260400190565b5f5f85851115613f6c575f5ffd5b83861115613f78575f5ffd5b5050820193919092039150565b80356001600160601b03198116906014841015613fbc576001600160601b03196001600160601b03198560140360031b1b82161691505b5092915050565b81810381811115610cad57610cad613ee7565b634e487b7160e01b5f52603260045260245ffd5b5f823561011e19833603018112613fff575f5ffd5b9190910192915050565b818382375f9101908152919050565b8215158152604060208201525f6107476040830184613be9565b81835281816020850137505f828201602090810191909152601f909101601f19169091010190565b602081525f610747602083018486614032565b5f6020828403121561407d575f5ffd5b8151610c6781613781565b65ffffffffffff8181168382160190811115610cad57610cad613ee7565b5f5f8335601e198436030181126140bb575f5ffd5b8301803591506001600160401b038211156140d4575f5ffd5b6020019150368190038213156138c2575f5ffd5b5f8235605e19833603018112613fff575f5ffd5b5f5f8335601e19843603018112614111575f5ffd5b8301803591506001600160401b0382111561412a575f5ffd5b6020019150600581901b36038213156138c2575f5ffd5b5f5f8335601e19843603018112614156575f5ffd5b83016020810192503590506001600160401b03811115614174575f5ffd5b8036038213156138c2575f5ffd5b61419c8261418f83613795565b6001600160a01b03169052565b602081810135908301525f6141b46040830183614141565b61012060408601526141cb61012086018284614032565b9150506141db6060840184614141565b85830360608701526141ee838284614032565b6080868101359088015260a0808701359088015260c08087013590880152925061421e91505060e0840184614141565b85830360e0870152614231838284614032565b92505050614243610100840184614141565b858303610100870152614257838284614032565b9695505050505050565b604080825281018490525f6060600586901b83018101908301878361011e1936839003015b898210156142ca57868503605f1901845282358181126142a4575f5ffd5b6142b0868d8301614182565b955050602083019250602084019350600182019150614286565b5050505082810360208401526142e1818587614032565b979650505050505050565b634e487b7160e01b5f52602160045260245ffd5b5f6003861061431d57634e487b7160e01b5f52602160045260245ffd5b858252608060208301526143346080830186613be9565b6040830194909452506060015292915050565b602081525f610c676020830184613be9565b6001600160601b03198460601b168152818360148301375f910160140190815292915050565b604081525f6143916040830185614182565b90508260208301529392505050565b805180516001600160a01b031683526020810151602084015260408101516040840152606081015160608401526080810151608084015260a081015160a084015260c081015160c084015260e081015161440560e08501826001600160a01b03169052565b5061010081810151908401526101209081015190830152602081015161014083015260408101516101608301526060810151610180830152608001516101a090910152565b61020081525f61445e610200830186613be9565b61446b60208401866143a0565b8281036101e08401526142578185613be9565b61020081525f61449361020083018688614032565b6144a060208401866143a0565b8281036101e08401526142e18185613be9565b606081525f6144c6606083018789614032565b6001600160a01b038616602084015282810360408401526144e8818587614032565b98975050505050505050565b5f60033d111561377e5760045f5f3e505f5160e01c90565b5f60443d10156145195790565b6040513d600319016004823e80513d60248201116001600160401b038211171561454257505090565b80820180516001600160401b0381111561455d575050505090565b3d8401600319018282016020011115614577575050505090565b613eb360208285010185613743565b600181811c9082168061459a57607f821691505b602082108103613b0557634e487b7160e01b5f52602260045260245ffd5b80356001600160801b03198116906010841015613fbc576001600160801b031960109490940360031b84901b1690921692915050565b6001600160a01b03841681526040602082018190525f906146129083018486614032565b95945050505050565b606081525f61462d6060830186614182565b60208301949094525060400152919050565b818152604060208201525f610c6760408301601981527810504c8c081858d8dbdd5b9d081b9bdd0819195c1b1bde5959603a1b602082015260400190565b82815260606020820152600d60608201526c10504c8cc81c995d995c9d1959609a1b608082015260a060408201525f61074760a0830184613be9565b82815260606020820152600d60608201526c10504cccc81c995d995c9d1959609a1b608082015260a060408201525f61074760a0830184613be956fea26469706673582212208bb4542ce9c01d5d549b4f7640e938554f21956dd03db0b3d4a7f0efc579138864736f6c634300081c003360a0604052348015600e575f5ffd5b503360805260805161050b6100375f395f818160770152818160ba01526101bc015261050b5ff3fe608060405234801561000f575f5ffd5b506004361061003f575f3560e01c8063570e1a3614610043578063b0d691fe14610072578063c09ad0d914610099575b5f5ffd5b61005661005136600461029e565b6100ae565b6040516001600160a01b03909116815260200160405180910390f35b6100567f000000000000000000000000000000000000000000000000000000000000000081565b6100ac6100a7366004610320565b6101b1565b005b5f336001600160a01b037f0000000000000000000000000000000000000000000000000000000000000000161461012c5760405162461bcd60e51b815260206004820181905260248201527f414139372073686f756c642063616c6c2066726f6d20456e747279506f696e7460448201526064015b60405180910390fd5b5f61013a60148285876103f1565b61014391610418565b60601c90505f61015684601481886103f1565b8080601f0160208091040260200160405190810160405280939291908181526020018383808284375f92018290525084519495509360209350849250905082850182875af1905080156101a8575f5193505b50505092915050565b336001600160a01b037f000000000000000000000000000000000000000000000000000000000000000016146102295760405162461bcd60e51b815260206004820181905260248201527f414139372073686f756c642063616c6c2066726f6d20456e747279506f696e746044820152606401610123565b5f5f5f8351602085015f875af1905080610268575f61024961080061026d565b90505f816040516365c8fd4d60e01b8152600401610123929190610465565b505050565b60603d821561028157828111156102815750815b604051602082018101604052818152815f602083013e9392505050565b5f5f602083850312156102af575f5ffd5b823567ffffffffffffffff8111156102c5575f5ffd5b8301601f810185136102d5575f5ffd5b803567ffffffffffffffff8111156102eb575f5ffd5b8560208284010111156102fc575f5ffd5b6020919091019590945092505050565b634e487b7160e01b5f52604160045260245ffd5b5f5f60408385031215610331575f5ffd5b82356001600160a01b0381168114610347575f5ffd5b9150602083013567ffffffffffffffff811115610362575f5ffd5b8301601f81018513610372575f5ffd5b803567ffffffffffffffff81111561038c5761038c61030c565b604051601f8201601f19908116603f0116810167ffffffffffffffff811182821017156103bb576103bb61030c565b6040528181528282016020018710156103d2575f5ffd5b816020840160208301375f602083830101528093505050509250929050565b5f5f858511156103ff575f5ffd5b8386111561040b575f5ffd5b5050820193919092039150565b80356bffffffffffffffffffffffff19811690601484101561045e576bffffffffffffffffffffffff196bffffffffffffffffffffffff198560140360031b1b82161691505b5092915050565b82815260606020820152601f60608201527f4141313320454950373730322073656e64657220696e6974206661696c656400608082015260a060408201525f82518060a0840152806020850160c085015e5f60c0828501015260c0601f19601f830116840101915050939250505056fea2646970667358221220ce3003050f7304ad0d8743af6cec192adb252ce4004030469c2c09133eb298f764736f6c634300081c0033",
  "linkReferences": {},
  "deployedLinkReferences": {}
}