{
  "_format": "hh-sol-artifact-1",
  "contractName": "SenderCreator",
  "sourceName": "contracts/SenderCreator.sol",
  "abi": [
    {
      "inputs": [],
      "stateMutability": "nonpayable",
      "type": "constructor"
    },
    {
      "inputs": [
        {
          "internalType": "uint256",
          "name": "opIndex",
          "type": "uint256"
        },
        {
          "internalType": "string",
          "name": "reason",
          "type": "string"
        },
        {
          "internalType": "bytes",
          "name": "inner",
          "type": "bytes"
        }
      ],
      "name": "FailedOpWithRevert",
      "type": "error"
    },
    {
      "inputs": [
        {
          "internalType": "bytes",
          "name": "initCode",
          "type": "bytes"
        }
      ],
      "name": "createSender",
      "outputs": [
        {
          "internalType": "address",
          "name": "sender",
          "type": "address"
        }
      ],
      "stateMutability": "nonpayable",
      "type": "function"
    },
    {
      "inputs": [],
      "name": "entryPoint",
      "outputs": [
        {
          "internalType": "address",
          "name": "",
          "type": "address"
        }
      ],
      "stateMutability": "view",
      "type": "function"
    },
    {
      "inputs": [
        {
          "internalType": "address",
          "name": "sender",
          "type": "address"
        },
        {
          "internalType": "bytes",
          "name": "initCallData",
          "type": "bytes"
        }
      ],
      "name": "initEip7702Sender",
      "outputs": [],
      "stateMutability": "nonpayable",
      "type": "function"
    }
  ],
  "bytecode": "0x60a0604052348015600e575f5ffd5b503360805260805161050b6100375f395f818160770152818160ba01526101bc015261050b5ff3fe608060405234801561000f575f5ffd5b506004361061003f575f3560e01c8063570e1a3614610043578063b0d691fe14610072578063c09ad0d914610099575b5f5ffd5b61005661005136600461029e565b6100ae565b6040516001600160a01b03909116815260200160405180910390f35b6100567f000000000000000000000000000000000000000000000000000000000000000081565b6100ac6100a7366004610320565b6101b1565b005b5f336001600160a01b037f0000000000000000000000000000000000000000000000000000000000000000161461012c5760405162461bcd60e51b815260206004820181905260248201527f414139372073686f756c642063616c6c2066726f6d20456e747279506f696e7460448201526064015b60405180910390fd5b5f61013a60148285876103f1565b61014391610418565b60601c90505f61015684601481886103f1565b8080601f0160208091040260200160405190810160405280939291908181526020018383808284375f92018290525084519495509360209350849250905082850182875af1905080156101a8575f5193505b50505092915050565b336001600160a01b037f000000000000000000000000000000000000000000000000000000000000000016146102295760405162461bcd60e51b815260206004820181905260248201527f414139372073686f756c642063616c6c2066726f6d20456e747279506f696e746044820152606401610123565b5f5f5f8351602085015f875af1905080610268575f61024961080061026d565b90505f816040516365c8fd4d60e01b8152600401610123929190610465565b505050565b60603d821561028157828111156102815750815b604051602082018101604052818152815f602083013e9392505050565b5f5f602083850312156102af575f5ffd5b823567ffffffffffffffff8111156102c5575f5ffd5b8301601f810185136102d5575f5ffd5b803567ffffffffffffffff8111156102eb575f5ffd5b8560208284010111156102fc575f5ffd5b6020919091019590945092505050565b634e487b7160e01b5f52604160045260245ffd5b5f5f60408385031215610331575f5ffd5b82356001600160a01b0381168114610347575f5ffd5b9150602083013567ffffffffffffffff811115610362575f5ffd5b8301601f81018513610372575f5ffd5b803567ffffffffffffffff81111561038c5761038c61030c565b604051601f8201601f19908116603f0116810167ffffffffffffffff811182821017156103bb576103bb61030c565b6040528181528282016020018710156103d2575f5ffd5b816020840160208301375f602083830101528093505050509250929050565b5f5f858511156103ff575f5ffd5b8386111561040b575f5ffd5b5050820193919092039150565b80356bffffffffffffffffffffffff19811690601484101561045e576bffffffffffffffffffffffff196bffffffffffffffffffffffff198560140360031b1b82161691505b5092915050565b82815260606020820152601f60608201527f4141313320454950373730322073656e64657220696e6974206661696c656400608082015260a060408201525f82518060a0840152806020850160c085015e5f60c0828501015260c0601f19601f830116840101915050939250505056fea2646970667358221220ce3003050f7304ad0d8743af6cec192adb252ce4004030469c2c09133eb298f764736f6c634300081c0033",
  "linkReferences": {},
  "deployedLinkReferences": {}
}